{
  "contractName": "Client",
  "abi": [
    {
      "inputs": [
        {
          "internalType": "address",
          "name": "_oracle",
          "type": "address"
        }
      ],
      "stateMutability": "nonpayable",
      "type": "constructor"
    },
    {
      "inputs": [],
      "name": "oracle",
      "outputs": [
        {
          "internalType": "contract IOracle",
          "name": "",
          "type": "address"
        }
      ],
      "stateMutability": "view",
      "type": "function",
      "constant": true
    },
    {
      "inputs": [],
      "name": "foo",
      "outputs": [
        {
          "internalType": "uint256",
          "name": "",
          "type": "uint256"
        }
      ],
      "stateMutability": "view",
      "type": "function",
      "constant": true
    }
  ],
  "bytecode": "0x608060405234801561001057600080fd5b5060405161067c38038061067c8339818101604052810190610032919061008d565b806000806101000a81548173ffffffffffffffffffffffffffffffffffffffff021916908373ffffffffffffffffffffffffffffffffffffffff160217905550506100ff565b600081519050610087816100e8565b92915050565b60006020828403121561009f57600080fd5b60006100ad84828501610078565b91505092915050565b60006100c1826100c8565b9050919050565b600073ffffffffffffffffffffffffffffffffffffffff82169050919050565b6100f1816100b6565b81146100fc57600080fd5b50565b61056e8061010e6000396000f3fe608060405234801561001057600080fd5b50600436106100365760003560e01c80637dc0d1d01461003b578063c298557814610059575b600080fd5b610043610077565b60405161005091906103b1565b60405180910390f35b61006161009b565b60405161006e919061040c565b60405180910390f35b60008054906101000a900473ffffffffffffffffffffffffffffffffffffffff1681565b6000806040516020016100ad90610381565b60405160208183030381529060405280519060200120905060008060008060009054906101000a900473ffffffffffffffffffffffffffffffffffffffff1673ffffffffffffffffffffffffffffffffffffffff166354f6127f856040518263ffffffff1660e01b81526004016101249190610396565b60606040518083038186803b15801561013c57600080fd5b505afa158015610150573d6000803e3d6000fd5b505050506040513d601f19601f820116820180604052508101906101749190610245565b92509250925060011515831515146101c1576040517f08c379a00000000000000000000000000000000000000000000000000000000081526004016101b8906103ec565b60405180910390fd5b610258426101cf9190610443565b821015610211576040517f08c379a0000000000000000000000000000000000000000000000000000000008152600401610208906103cc565b60405180910390fd5b8094505050505090565b60008151905061022a8161050a565b92915050565b60008151905061023f81610521565b92915050565b60008060006060848603121561025a57600080fd5b60006102688682870161021b565b935050602061027986828701610230565b925050604061028a86828701610230565b9150509250925092565b61029d81610483565b82525050565b6102ac816104b7565b82525050565b60006102bf600783610438565b91507f4254432f555344000000000000000000000000000000000000000000000000006000830152600782019050919050565b60006102ff600983610427565b91507f4f6c6420507269636500000000000000000000000000000000000000000000006000830152602082019050919050565b600061033f601383610427565b91507f636f756c64206e6f7420676574207072696365000000000000000000000000006000830152602082019050919050565b61037b816104ad565b82525050565b600061038c826102b2565b9150819050919050565b60006020820190506103ab6000830184610294565b92915050565b60006020820190506103c660008301846102a3565b92915050565b600060208201905081810360008301526103e5816102f2565b9050919050565b6000602082019050818103600083015261040581610332565b9050919050565b60006020820190506104216000830184610372565b92915050565b600082825260208201905092915050565b600081905092915050565b600061044e826104ad565b9150610459836104ad565b92508282101561046c5761046b6104db565b5b828203905092915050565b60008115159050919050565b6000819050919050565b600073ffffffffffffffffffffffffffffffffffffffff82169050919050565b6000819050919050565b60006104c2826104c9565b9050919050565b60006104d48261048d565b9050919050565b7f4e487b7100000000000000000000000000000000000000000000000000000000600052601160045260246000fd5b61051381610477565b811461051e57600080fd5b50565b61052a816104ad565b811461053557600080fd5b5056fea26469706673582212208d580635c2e7007b0305ac4830b23cb6e532febfbe4446792241f52796f46f5264736f6c63430008000033",
  "immutableReferences": {},
  "source": "// SPDX-License-Identifier: MIT\npragma solidity ^0.8.0;\n\n\n  // Oracle and client contracts work together\n  // second: the Client contract is for reading from Oracle contract\nimport './interface/IOracle.sol';\n\ncontract Client {\n// in this contract exmaple, there one interface to get the price from the Oracle contract\n// 1- IOracle file contains Oracle contract functions, but here we use only getData function from the Oracle contract\n\nIOracle public oracle;\n// _oracle os the the Oracle contract address\nconstructor(address _oracle) {\n    oracle = IOracle(_oracle);\n}\n\n  // foo is for geting the data(price), \n  // there is a requirement if the timestamp was 10 mins ago, \n  // the reporter needs to update the price by using the updateData() func in the Oracle contract. \n  function foo() view external returns(  uint){\n    bytes32 key = keccak256(abi.encodePacked('BTC/USD'));\n    (bool result, uint timestemp , uint data) = oracle.getData(key);\n    require(result == true, 'could not get price');\n    require(timestemp >= block.timestamp - 10 minutes, 'Old Price');\n    return data;\n    //do something with price;\n\n  }\n}",
  "sourcePath": "/Users/anwar/Documents/cookDapp2022/dapp/contracts/Client.sol",
  "compiler": {
    "name": "solc",
    "version": "0.8.0+commit.c7dfd78e.Emscripten.clang"
  },
  "schemaVersion": "3.4.7",
  "updatedAt": "2022-11-14T19:52:02.889Z",
  "networkType": "ethereum",
  "devdoc": {
    "kind": "dev",
    "methods": {},
    "version": 1
  },
  "userdoc": {
    "kind": "user",
    "methods": {},
    "version": 1
  }
}