{
  "contractName": "onChain",
  "abi": [
    {
      "inputs": [],
      "stateMutability": "nonpayable",
      "type": "constructor"
    },
    {
      "inputs": [],
      "name": "getEthPriceFeed",
      "outputs": [
        {
          "internalType": "int256",
          "name": "",
          "type": "int256"
        }
      ],
      "stateMutability": "view",
      "type": "function",
      "constant": true
    }
  ],
  "bytecode": "0x608060405234801561001057600080fd5b5073d4a33860578de61dbabdc8bfdb98fd742fa7028e6000806101000a81548173ffffffffffffffffffffffffffffffffffffffff021916908373ffffffffffffffffffffffffffffffffffffffff160217905550610358806100746000396000f3fe608060405234801561001057600080fd5b506004361061002b5760003560e01c8063afa7d1f014610030575b600080fd5b61003861004e565b60405161004591906101d0565b60405180910390f35b60008060008054906101000a900473ffffffffffffffffffffffffffffffffffffffff1673ffffffffffffffffffffffffffffffffffffffff1663feaf968c6040518163ffffffff1660e01b815260040160a06040518083038186803b1580156100b757600080fd5b505afa1580156100cb573d6000803e3d6000fd5b505050506040513d601f19601f820116820180604052508101906100ef919061014a565b5050509150506305f5e1008161010591906101eb565b91505090565b60008151905061011a816102dd565b92915050565b60008151905061012f816102f4565b92915050565b6000815190506101448161030b565b92915050565b600080600080600060a0868803121561016257600080fd5b600061017088828901610135565b95505060206101818882890161010b565b945050604061019288828901610120565b93505060606101a388828901610120565b92505060806101b488828901610135565b9150509295509295909350565b6101ca81610255565b82525050565b60006020820190506101e560008301846101c1565b92915050565b60006101f682610255565b915061020183610255565b925082610211576102106102ae565b5b600160000383147f80000000000000000000000000000000000000000000000000000000000000008314161561024a5761024961027f565b5b828205905092915050565b6000819050919050565b6000819050919050565b600069ffffffffffffffffffff82169050919050565b7f4e487b7100000000000000000000000000000000000000000000000000000000600052601160045260246000fd5b7f4e487b7100000000000000000000000000000000000000000000000000000000600052601260045260246000fd5b6102e681610255565b81146102f157600080fd5b50565b6102fd8161025f565b811461030857600080fd5b50565b61031481610269565b811461031f57600080fd5b5056fea264697066735822122049761b2b8eda3ac4a56db12b22f271e89f26dd011872480d84fad41b904297ee64736f6c63430008000033",
  "immutableReferences": {},
  "source": "// SPDX-License-Identifier: MIT \npragma solidity ^0.8.0;\nimport \"./chainlink/interface/AggregatorV3Interface.sol\";\nimport \"@openzeppelin/contracts/token/ERC20/extensions/IERC20Metadata.sol\";\n\n// https://docs.chain.link/docs/ethereum-addresses/\n// https://docs.chain.link/docs/data-feeds/price-feeds/addresses/?network=ethereum#Goerli%20Testnet\n// in this contract exmaple, there are one interface to get the price \n// chainlink : AggregatorV3Interface file and we only use latestRoundData function \n// IERC20Metadata interface contains IERC20 interface\n//  IERC20Metadata Interface functions from the ERC20 standard. (name(), decimals(), and symbol() functions are from ERC20 standard).\n\ncontract onChain  {\n    // the interface of chainlink is usdETHPriceFeed\n    AggregatorV3Interface private usdETHPriceFeed;\n    // to store an amount\n    uint private amount;\n\n    constructor () {  \n        usdETHPriceFeed = AggregatorV3Interface(0xD4a33860578De61DBAbDc8BFdb98FD742fA7028e); // from chainlink feed price site.\n        // https://github.com/smartcontractkit/chainlink/blob/develop/contracts/src/v0.8/interfaces/AggregatorV3Interface.sol\n    }\n\n    // getEthPriceFeed from chainlink pair address using the function latestRoundData in the interface . \n    // in this function, it only returns the price of this pair 0x8A753747A1Fa494EC906cE90E9f37563A8AF630e as\n    // it was added in the constructor\n    function getEthPriceFeed () external view returns (int) {\n        (,int price,,,) = usdETHPriceFeed.latestRoundData();\n        return price / 1e8; // 10 ** 8\n    }\n\n}",
  "sourcePath": "/Users/anwar/Documents/cookDapp2022/dapp/contracts/onChain.sol",
  "compiler": {
    "name": "solc",
    "version": "0.8.0+commit.c7dfd78e.Emscripten.clang"
  },
  "schemaVersion": "3.4.7",
  "updatedAt": "2022-11-15T22:04:14.678Z",
  "networkType": "ethereum",
  "devdoc": {
    "kind": "dev",
    "methods": {},
    "version": 1
  },
  "userdoc": {
    "kind": "user",
    "methods": {},
    "version": 1
  }
}