{
  "contractName": "Oracle",
  "abi": [
    {
      "inputs": [
        {
          "internalType": "address",
          "name": "_admin",
          "type": "address"
        }
      ],
      "stateMutability": "nonpayable",
      "type": "constructor"
    },
    {
      "inputs": [],
      "name": "admin",
      "outputs": [
        {
          "internalType": "address",
          "name": "",
          "type": "address"
        }
      ],
      "stateMutability": "view",
      "type": "function",
      "constant": true
    },
    {
      "inputs": [
        {
          "internalType": "bytes32",
          "name": "",
          "type": "bytes32"
        }
      ],
      "name": "data",
      "outputs": [
        {
          "internalType": "uint256",
          "name": "date",
          "type": "uint256"
        },
        {
          "internalType": "uint256",
          "name": "payload",
          "type": "uint256"
        }
      ],
      "stateMutability": "view",
      "type": "function",
      "constant": true
    },
    {
      "inputs": [
        {
          "internalType": "bytes32",
          "name": "key",
          "type": "bytes32"
        },
        {
          "internalType": "uint256",
          "name": "payload",
          "type": "uint256"
        }
      ],
      "name": "updateData",
      "outputs": [],
      "stateMutability": "nonpayable",
      "type": "function"
    },
    {
      "inputs": [
        {
          "internalType": "bytes32",
          "name": "key",
          "type": "bytes32"
        }
      ],
      "name": "getData",
      "outputs": [
        {
          "internalType": "bool",
          "name": "result",
          "type": "bool"
        },
        {
          "internalType": "uint256",
          "name": "timestemp",
          "type": "uint256"
        },
        {
          "internalType": "uint256",
          "name": "payload",
          "type": "uint256"
        }
      ],
      "stateMutability": "view",
      "type": "function",
      "constant": true
    }
  ],
  "bytecode": "0x608060405234801561001057600080fd5b506040516104e43803806104e48339818101604052810190610032919061008d565b806000806101000a81548173ffffffffffffffffffffffffffffffffffffffff021916908373ffffffffffffffffffffffffffffffffffffffff160217905550506100ff565b600081519050610087816100e8565b92915050565b60006020828403121561009f57600080fd5b60006100ad84828501610078565b91505092915050565b60006100c1826100c8565b9050919050565b600073ffffffffffffffffffffffffffffffffffffffff82169050919050565b6100f1816100b6565b81146100fc57600080fd5b50565b6103d68061010e6000396000f3fe608060405234801561001057600080fd5b506004361061004c5760003560e01c80630147fb0c1461005157806354f6127f14610082578063a8200ab7146100b4578063f851a440146100d0575b600080fd5b61006b60048036038101906100669190610213565b6100ee565b6040516100799291906102f7565b60405180910390f35b61009c60048036038101906100979190610213565b610112565b6040516100ab939291906102c0565b60405180910390f35b6100ce60048036038101906100c9919061023c565b610182565b005b6100d86101c5565b6040516100e591906102a5565b60405180910390f35b60016020528060005260406000206000915090508060000154908060010154905082565b6000806000806001600086815260200190815260200160002060000154141561014557600080600092509250925061017b565b60018060008681526020019081526020016000206000015460016000878152602001908152602001600020600101549250925092505b9193909250565b6040518060400160405280428152602001828152506001600084815260200190815260200160002060008201518160000155602082015181600101559050505050565b60008054906101000a900473ffffffffffffffffffffffffffffffffffffffff1681565b6000813590506101f881610372565b92915050565b60008135905061020d81610389565b92915050565b60006020828403121561022557600080fd5b6000610233848285016101e9565b91505092915050565b6000806040838503121561024f57600080fd5b600061025d858286016101e9565b925050602061026e858286016101fe565b9150509250929050565b61028181610320565b82525050565b61029081610332565b82525050565b61029f81610368565b82525050565b60006020820190506102ba6000830184610278565b92915050565b60006060820190506102d56000830186610287565b6102e26020830185610296565b6102ef6040830184610296565b949350505050565b600060408201905061030c6000830185610296565b6103196020830184610296565b9392505050565b600061032b82610348565b9050919050565b60008115159050919050565b6000819050919050565b600073ffffffffffffffffffffffffffffffffffffffff82169050919050565b6000819050919050565b61037b8161033e565b811461038657600080fd5b50565b61039281610368565b811461039d57600080fd5b5056fea2646970667358221220e2ad64202220633115dd4f9287537498f065f3de3ab7c79d14de0a4dd5fe1b0064736f6c63430008000033",
  "immutableReferences": {},
  "source": "// SPDX-License-Identifier: MIT\npragma solidity ^0.8.0;\n  // Oracle and client contracts work together\n  // First, the oracle contract to read offchain data\ncontract Oracle {\n\nstruct Data {\n    uint date; //  timestamp\n    uint payload; // price\n  }\n\n  address public admin;\n\n  // mapping(address => bool) public reporters;\n  mapping(bytes32 => Data) public data; // mapping the struct,\n  // so we get from each key a different result\n\n\n  // admain of this contract\n  constructor(address _admin) {\n    admin = _admin;\n  }\n\n\n  // first the admin needs to add a reporter to update the price\n  // function updateReporter(address reporter, bool isReporter) external {\n  //   // require(msg.sender == admin, 'only admin');\n  //   reporters[reporter] = isReporter;\n  // }\n\n\n  // only reporter can run updateData function to update a price \n  function updateData(bytes32 key, uint payload) external {\n    // require(reporters[msg.sender] == true, 'only reporters');\n    data[key] = Data(block.timestamp, payload);\n  }\n\n\n  // return the time and price from the struct data\n  function getData(bytes32 key)\n    external\n    view\n    returns(bool result, uint timestemp, uint payload) {\n    if(data[key].date == 0) {\n      return (false, 0, 0);\n    }\n    return (true, data[key].date, data[key].payload);\n  }\n\n\n}",
  "sourcePath": "/Users/anwar/Documents/cookDapp2022/dapp/contracts/Oracle.sol",
  "compiler": {
    "name": "solc",
    "version": "0.8.0+commit.c7dfd78e.Emscripten.clang"
  },
  "schemaVersion": "3.4.7",
  "updatedAt": "2022-11-14T19:52:02.883Z",
  "networkType": "ethereum",
  "devdoc": {
    "kind": "dev",
    "methods": {},
    "version": 1
  },
  "userdoc": {
    "kind": "user",
    "methods": {},
    "version": 1
  }
}